{
  "contractName": "ArbitrableProxy",
  "abi": [
    {
      "inputs": [
        {
          "internalType": "contract IArbitrator",
          "name": "_arbitrator",
          "type": "address"
        }
      ],
      "stateMutability": "nonpayable",
      "type": "constructor"
    },
    {
      "anonymous": false,
      "inputs": [
        {
          "indexed": true,
          "internalType": "uint256",
          "name": "_localDisputeID",
          "type": "uint256"
        },
        {
          "indexed": true,
          "internalType": "uint256",
          "name": "_round",
          "type": "uint256"
        },
        {
          "indexed": false,
          "internalType": "uint256",
          "name": "ruling",
          "type": "uint256"
        },
        {
          "indexed": true,
          "internalType": "address",
          "name": "_contributor",
          "type": "address"
        },
        {
          "indexed": false,
          "internalType": "uint256",
          "name": "_amount",
          "type": "uint256"
        }
      ],
      "name": "Contribution",
      "type": "event"
    },
    {
      "anonymous": false,
      "inputs": [
        {
          "indexed": true,
          "internalType": "contract IArbitrator",
          "name": "_arbitrator",
          "type": "address"
        },
        {
          "indexed": true,
          "internalType": "uint256",
          "name": "_disputeID",
          "type": "uint256"
        },
        {
          "indexed": false,
          "internalType": "uint256",
          "name": "_metaEvidenceID",
          "type": "uint256"
        },
        {
          "indexed": false,
          "internalType": "uint256",
          "name": "_evidenceGroupID",
          "type": "uint256"
        }
      ],
      "name": "Dispute",
      "type": "event"
    },
    {
      "anonymous": false,
      "inputs": [
        {
          "indexed": true,
          "internalType": "contract IArbitrator",
          "name": "_arbitrator",
          "type": "address"
        },
        {
          "indexed": true,
          "internalType": "uint256",
          "name": "_evidenceGroupID",
          "type": "uint256"
        },
        {
          "indexed": true,
          "internalType": "address",
          "name": "_party",
          "type": "address"
        },
        {
          "indexed": false,
          "internalType": "string",
          "name": "_evidence",
          "type": "string"
        }
      ],
      "name": "Evidence",
      "type": "event"
    },
    {
      "anonymous": false,
      "inputs": [
        {
          "indexed": true,
          "internalType": "uint256",
          "name": "_metaEvidenceID",
          "type": "uint256"
        },
        {
          "indexed": false,
          "internalType": "string",
          "name": "_evidence",
          "type": "string"
        }
      ],
      "name": "MetaEvidence",
      "type": "event"
    },
    {
      "anonymous": false,
      "inputs": [
        {
          "indexed": true,
          "internalType": "contract IArbitrator",
          "name": "_arbitrator",
          "type": "address"
        },
        {
          "indexed": true,
          "internalType": "uint256",
          "name": "_disputeID",
          "type": "uint256"
        },
        {
          "indexed": false,
          "internalType": "uint256",
          "name": "_ruling",
          "type": "uint256"
        }
      ],
      "name": "Ruling",
      "type": "event"
    },
    {
      "anonymous": false,
      "inputs": [
        {
          "indexed": true,
          "internalType": "uint256",
          "name": "_localDisputeID",
          "type": "uint256"
        },
        {
          "indexed": true,
          "internalType": "uint256",
          "name": "_round",
          "type": "uint256"
        },
        {
          "indexed": true,
          "internalType": "uint256",
          "name": "_ruling",
          "type": "uint256"
        }
      ],
      "name": "RulingFunded",
      "type": "event"
    },
    {
      "anonymous": false,
      "inputs": [
        {
          "indexed": true,
          "internalType": "uint256",
          "name": "_localDisputeID",
          "type": "uint256"
        },
        {
          "indexed": true,
          "internalType": "uint256",
          "name": "_round",
          "type": "uint256"
        },
        {
          "indexed": false,
          "internalType": "uint256",
          "name": "_ruling",
          "type": "uint256"
        },
        {
          "indexed": true,
          "internalType": "address",
          "name": "_contributor",
          "type": "address"
        },
        {
          "indexed": false,
          "internalType": "uint256",
          "name": "_reward",
          "type": "uint256"
        }
      ],
      "name": "Withdrawal",
      "type": "event"
    },
    {
      "inputs": [],
      "name": "DENOMINATOR",
      "outputs": [
        {
          "internalType": "uint256",
          "name": "",
          "type": "uint256"
        }
      ],
      "stateMutability": "view",
      "type": "function",
      "constant": true
    },
    {
      "inputs": [],
      "name": "MAX_NUMBER_OF_CHOICES",
      "outputs": [
        {
          "internalType": "uint256",
          "name": "",
          "type": "uint256"
        }
      ],
      "stateMutability": "view",
      "type": "function",
      "constant": true
    },
    {
      "inputs": [],
      "name": "VERSION",
      "outputs": [
        {
          "internalType": "string",
          "name": "",
          "type": "string"
        }
      ],
      "stateMutability": "view",
      "type": "function",
      "constant": true
    },
    {
      "inputs": [],
      "name": "arbitrator",
      "outputs": [
        {
          "internalType": "contract IArbitrator",
          "name": "",
          "type": "address"
        }
      ],
      "stateMutability": "view",
      "type": "function",
      "constant": true
    },
    {
      "inputs": [
        {
          "internalType": "uint256",
          "name": "",
          "type": "uint256"
        },
        {
          "internalType": "uint256",
          "name": "",
          "type": "uint256"
        }
      ],
      "name": "disputeIDtoRoundArray",
      "outputs": [
        {
          "internalType": "uint256",
          "name": "feeRewards",
          "type": "uint256"
        }
      ],
      "stateMutability": "view",
      "type": "function",
      "constant": true
    },
    {
      "inputs": [
        {
          "internalType": "uint256",
          "name": "",
          "type": "uint256"
        }
      ],
      "name": "disputes",
      "outputs": [
        {
          "internalType": "bytes",
          "name": "arbitratorExtraData",
          "type": "bytes"
        },
        {
          "internalType": "bool",
          "name": "isRuled",
          "type": "bool"
        },
        {
          "internalType": "uint256",
          "name": "ruling",
          "type": "uint256"
        },
        {
          "internalType": "uint256",
          "name": "disputeIDOnArbitratorSide",
          "type": "uint256"
        }
      ],
      "stateMutability": "view",
      "type": "function",
      "constant": true
    },
    {
      "inputs": [
        {
          "internalType": "uint256",
          "name": "",
          "type": "uint256"
        }
      ],
      "name": "externalIDtoLocalID",
      "outputs": [
        {
          "internalType": "uint256",
          "name": "",
          "type": "uint256"
        }
      ],
      "stateMutability": "view",
      "type": "function",
      "constant": true
    },
    {
      "inputs": [],
      "name": "governor",
      "outputs": [
        {
          "internalType": "address",
          "name": "",
          "type": "address"
        }
      ],
      "stateMutability": "view",
      "type": "function",
      "constant": true
    },
    {
      "inputs": [],
      "name": "loserAppealPeriodMultiplier",
      "outputs": [
        {
          "internalType": "uint256",
          "name": "",
          "type": "uint256"
        }
      ],
      "stateMutability": "view",
      "type": "function",
      "constant": true
    },
    {
      "inputs": [],
      "name": "loserStakeMultiplier",
      "outputs": [
        {
          "internalType": "uint256",
          "name": "",
          "type": "uint256"
        }
      ],
      "stateMutability": "view",
      "type": "function",
      "constant": true
    },
    {
      "inputs": [
        {
          "internalType": "uint256",
          "name": "",
          "type": "uint256"
        }
      ],
      "name": "numberOfRulingOptions",
      "outputs": [
        {
          "internalType": "uint256",
          "name": "",
          "type": "uint256"
        }
      ],
      "stateMutability": "view",
      "type": "function",
      "constant": true
    },
    {
      "inputs": [],
      "name": "winnerStakeMultiplier",
      "outputs": [
        {
          "internalType": "uint256",
          "name": "",
          "type": "uint256"
        }
      ],
      "stateMutability": "view",
      "type": "function",
      "constant": true
    },
    {
      "inputs": [
        {
          "internalType": "uint256",
          "name": "_localDisputeID",
          "type": "uint256"
        },
        {
          "internalType": "string",
          "name": "_evidenceURI",
          "type": "string"
        }
      ],
      "name": "submitEvidence",
      "outputs": [],
      "stateMutability": "nonpayable",
      "type": "function"
    },
    {
      "inputs": [
        {
          "internalType": "bytes",
          "name": "_arbitratorExtraData",
          "type": "bytes"
        },
        {
          "internalType": "string",
          "name": "_metaevidenceURI",
          "type": "string"
        },
        {
          "internalType": "uint256",
          "name": "_numberOfRulingOptions",
          "type": "uint256"
        }
      ],
      "name": "createDispute",
      "outputs": [
        {
          "internalType": "uint256",
          "name": "disputeID",
          "type": "uint256"
        }
      ],
      "stateMutability": "payable",
      "type": "function",
      "payable": true
    },
    {
      "inputs": [
        {
          "internalType": "uint256",
          "name": "_localDisputeID",
          "type": "uint256"
        },
        {
          "internalType": "uint256",
          "name": "_ruling",
          "type": "uint256"
        }
      ],
      "name": "fundAppeal",
      "outputs": [
        {
          "internalType": "bool",
          "name": "fullyFunded",
          "type": "bool"
        }
      ],
      "stateMutability": "payable",
      "type": "function",
      "payable": true
    },
    {
      "inputs": [
        {
          "internalType": "uint256",
          "name": "_localDisputeID",
          "type": "uint256"
        },
        {
          "internalType": "address payable",
          "name": "_contributor",
          "type": "address"
        },
        {
          "internalType": "uint256",
          "name": "_ruling",
          "type": "uint256"
        }
      ],
      "name": "withdrawFeesAndRewardsForAllRounds",
      "outputs": [],
      "stateMutability": "nonpayable",
      "type": "function"
    },
    {
      "inputs": [
        {
          "internalType": "uint256",
          "name": "_localDisputeID",
          "type": "uint256"
        },
        {
          "internalType": "address payable",
          "name": "_contributor",
          "type": "address"
        },
        {
          "internalType": "uint256",
          "name": "_roundNumber",
          "type": "uint256"
        },
        {
          "internalType": "uint256",
          "name": "_ruling",
          "type": "uint256"
        }
      ],
      "name": "withdrawFeesAndRewards",
      "outputs": [
        {
          "internalType": "uint256",
          "name": "amount",
          "type": "uint256"
        }
      ],
      "stateMutability": "nonpayable",
      "type": "function"
    },
    {
      "inputs": [
        {
          "internalType": "uint256",
          "name": "_externalDisputeID",
          "type": "uint256"
        },
        {
          "internalType": "uint256",
          "name": "_ruling",
          "type": "uint256"
        }
      ],
      "name": "rule",
      "outputs": [],
      "stateMutability": "nonpayable",
      "type": "function"
    },
    {
      "inputs": [
        {
          "internalType": "address",
          "name": "_newGovernor",
          "type": "address"
        }
      ],
      "name": "setGovernor",
      "outputs": [],
      "stateMutability": "nonpayable",
      "type": "function"
    },
    {
      "inputs": [
        {
          "internalType": "uint256",
          "name": "_winnerStakeMultiplier",
          "type": "uint256"
        },
        {
          "internalType": "uint256",
          "name": "_loserStakeMultiplier",
          "type": "uint256"
        },
        {
          "internalType": "uint256",
          "name": "_loserAppealPeriodMultiplier",
          "type": "uint256"
        }
      ],
      "name": "changeMultipliers",
      "outputs": [],
      "stateMutability": "nonpayable",
      "type": "function"
    },
    {
      "inputs": [
        {
          "internalType": "uint256",
          "name": "_localDisputeID",
          "type": "uint256"
        },
        {
          "internalType": "address payable",
          "name": "_contributor",
          "type": "address"
        },
        {
          "internalType": "uint256",
          "name": "_ruling",
          "type": "uint256"
        }
      ],
      "name": "getTotalWithdrawableAmount",
      "outputs": [
        {
          "internalType": "uint256",
          "name": "sum",
          "type": "uint256"
        }
      ],
      "stateMutability": "view",
      "type": "function",
      "constant": true
    },
    {
      "inputs": [],
      "name": "getMultipliers",
      "outputs": [
        {
          "internalType": "uint256",
          "name": "_winnerStakeMultiplier",
          "type": "uint256"
        },
        {
          "internalType": "uint256",
          "name": "_loserStakeMultiplier",
          "type": "uint256"
        },
        {
          "internalType": "uint256",
          "name": "_loserAppealPeriodMultiplier",
          "type": "uint256"
        },
        {
          "internalType": "uint256",
          "name": "_denominator",
          "type": "uint256"
        }
      ],
      "stateMutability": "view",
      "type": "function",
      "constant": true
    }
  ],
  "bytecode": "0x60a060405260008054600160a060020a03191633179055612710600155614e2060025561138860035534801561003457600080fd5b506040516122963803806122968339818101604052602081101561005757600080fd5b5051600160a060020a03166c010000000000000000000000009081026080819052046121de6100b8600039806107f45280610d565280611131528061139c528061148852806116b052806119425280611cd05280611dd152506121de6000f3fe608060405260043610610192576000357c01000000000000000000000000000000000000000000000000000000009004806379873f8a116100e8578063c21ae0611161009c578063ec85635b11610076578063ec85635b14610654578063fe2dddeb146106a0578063ffa1ad74146106ec57610192565b8063c21ae06114610528578063c42cf53514610552578063e2c7981b1461059257610192565b80638d8b2d7e116100cd5780638d8b2d7e14610465578063918f86741461048f578063a6a7f0eb146104a457610192565b806379873f8a146104155780637b9433831461045057610192565b8063362c34791161014a5780634b2f0ea0116101245780634b2f0ea014610310578063564a565d146103475780636cc6cde11461040057610192565b8063362c3479146102585780633ef40ba7146102aa5780634658eb01146102da57610192565b80631351ce691161017b5780631351ce69146101fc5780631d51208514610211578063311a6c561461022657610192565b80630c139eb4146101975780630c340a24146101be575b600080fd5b3480156101a357600080fd5b506101ac610776565b60408051918252519081900360200190f35b3480156101ca57600080fd5b506101d361077c565b6040805173ffffffffffffffffffffffffffffffffffffffff9092168252519081900360200190f35b34801561020857600080fd5b506101ac610798565b34801561021d57600080fd5b506101ac6107bc565b34801561023257600080fd5b506102566004803603604081101561024957600080fd5b50803590602001356107c2565b005b34801561026457600080fd5b506101ac6004803603608081101561027b57600080fd5b5080359073ffffffffffffffffffffffffffffffffffffffff6020820135169060408101359060600135610a6c565b3480156102b657600080fd5b506101ac600480360360408110156102cd57600080fd5b5080359060200135610bf5565b3480156102e657600080fd5b50610256600480360360608110156102fd57600080fd5b5080359060208101359060400135610c2c565b6103336004803603604081101561032657600080fd5b5080359060200135610caa565b604080519115158252519081900360200190f35b34801561035357600080fd5b506103716004803603602081101561036a57600080fd5b50356112b1565b60405180806020018515158152602001848152602001838152602001828103825286818151815260200191508051906020019080838360005b838110156103c25781810151838201526020016103aa565b50505050905090810190601f1680156103ef5780820380516001836020036101000a031916815260200191505b509550505050505060405180910390f35b34801561040c57600080fd5b506101d361139a565b34801561042157600080fd5b5061042a6113be565b604080519485526020850193909352838301919091526060830152519081900360800190f35b34801561045c57600080fd5b506101ac6113d0565b34801561047157600080fd5b506101ac6004803603602081101561048857600080fd5b50356113d6565b34801561049b57600080fd5b506101ac6113e8565b3480156104b057600080fd5b50610256600480360360408110156104c757600080fd5b813591908101906040810160208201356401000000008111156104e957600080fd5b8201836020820111156104fb57600080fd5b8035906020019184600183028401116401000000008311171561051d57600080fd5b5090925090506113ee565b34801561053457600080fd5b506101ac6004803603602081101561054b57600080fd5b5035611541565b34801561055e57600080fd5b506102566004803603602081101561057557600080fd5b503573ffffffffffffffffffffffffffffffffffffffff16611553565b6101ac600480360360608110156105a857600080fd5b8101906020810181356401000000008111156105c357600080fd5b8201836020820111156105d557600080fd5b803590602001918460018302840111640100000000831117156105f757600080fd5b91939092909160208101903564010000000081111561061557600080fd5b82018360208201111561062757600080fd5b8035906020019184600183028401116401000000008311171561064957600080fd5b91935091503561160a565b34801561066057600080fd5b506101ac6004803603606081101561067757600080fd5b5080359073ffffffffffffffffffffffffffffffffffffffff60208201351690604001356119c0565b3480156106ac57600080fd5b50610256600480360360608110156106c357600080fd5b5080359073ffffffffffffffffffffffffffffffffffffffff6020820135169060400135611a66565b3480156106f857600080fd5b50610701611a9b565b6040805160208082528351818301528351919283929083019185019080838360005b8381101561073b578181015183820152602001610723565b50505050905090810190601f1680156107685780820380516001836020036101000a031916815260200191505b509250505060405180910390f35b60035481565b60005473ffffffffffffffffffffffffffffffffffffffff1681565b7ffffffffffffffffffffffffffffffffffffffffffffffffffffffffffffffffe81565b60025481565b60008281526005602052604081205460048054919291839081106107e257fe5b906000526020600020906004020190507f000000000000000000000000000000000000000000000000000000000000000073ffffffffffffffffffffffffffffffffffffffff163373ffffffffffffffffffffffffffffffffffffffff1614610896576040517f08c379a000000000000000000000000000000000000000000000000000000000815260040180806020018281038252602581526020018061215e6025913960400191505060405180910390fd5b60008281526007602052604090205483111561091357604080517f08c379a000000000000000000000000000000000000000000000000000000000815260206004820152600f60248201527f496e76616c69642072756c696e672e0000000000000000000000000000000000604482015290519081900360640190fd5b600181015460ff1615610971576040517f08c379a00000000000000000000000000000000000000000000000000000000081526004018080602001828103825260248152602001806120c96024913960400191505060405180910390fd5b600181810180547fffffffffffffffffffffffffffffffffffffffffffffffffffffffffffffff00169091179055600281018390556000828152600660205260408120805490919082907fffffffffffffffffffffffffffffffffffffffffffffffffffffffffffffffff81019081106109e757fe5b90600052602060002090600502019050806004018054905060011415610a295780600401600081548110610a1757fe5b60009182526020909120015460028401555b60028301546040805191825251879133917f394027a5fa6e098a1191094d1719d6929b9abc535fcc0c8f448d6a4e756222769181900360200190a3505050505050565b60008060048681548110610a7c57fe5b60009182526020909120600490910201600181015490915060ff16610b0257604080517f08c379a000000000000000000000000000000000000000000000000000000000815260206004820152601c60248201527f54686520646973707574652073686f756c6420626520736f6c76656400000000604482015290519081900360640190fd5b6000868152600660205260408120805486908110610b1c57fe5b90600052602060002090600502019050610b3c8187868560020154611ad4565b92508215610beb5773ffffffffffffffffffffffffffffffffffffffff8616600081815260028301602090815260408083208884529091528082208290555185156108fc0291869190818181858888f19350505050508573ffffffffffffffffffffffffffffffffffffffff1685887f54b3cab3cb5c4aca3209db1151caff092e878011202e43a36782d4ebe0b963ae8787604051808381526020018281526020019250505060405180910390a45b5050949350505050565b60066020528160005260406000208181548110610c1157600080fd5b60009182526020909120600360059092020101549150829050565b60005473ffffffffffffffffffffffffffffffffffffffff163314610c9c576040517f08c379a00000000000000000000000000000000000000000000000000000000081526004018080602001828103825260238152602001806120ed6023913960400191505060405180910390fd5b600192909255600255600355565b600082815260076020526040812054821115610d2757604080517f08c379a000000000000000000000000000000000000000000000000000000000815260206004820181905260248201527f5468657265206973206e6f20737563682072756c696e6720746f2066756e642e604482015290519081900360640190fd5b600060048481548110610d3657fe5b9060005260206000209060040201905060008160030154905060008060007f000000000000000000000000000000000000000000000000000000000000000073ffffffffffffffffffffffffffffffffffffffff16631c3db16d856040518263ffffffff167c01000000000000000000000000000000000000000000000000000000000281526004018082815260200191505060206040518083038186803b158015610de157600080fd5b505afa158015610df5573d6000803e3d6000fd5b505050506040513d6020811015610e0b57600080fd5b5051855460408051602060026001851615610100027fffffffffffffffffffffffffffffffffffffffffffffffffffffffffffffffff0190941693909304601f8101849004840282018401909252818152929350610ec692879290918991830182828015610eba5780601f10610e8f57610100808354040283529160200191610eba565b820191906000526020600020905b815481529060010190602001808311610e9d57829003601f168201915b50505050508984611c5d565b9093509150610ed6848883611dcc565b506000878152600660205260408120805490917fffffffffffffffffffffffffffffffffffffffffffffffffffffffffffffffff820191839083908110610f1957fe5b600091825260208083208c84526001600590930201918201905260409091205490915060ff1615610f95576040517f08c379a00000000000000000000000000000000000000000000000000000000081526004018080602001828103825260218152602001806121106021913960400191505060405180910390fd5b6000898152602082905260408120549034610fb08784611f63565b11610fc457610fbf8683611f63565b610fc6565b345b9050808360000160008d8152602001908152602001600020600082825401925050819055503373ffffffffffffffffffffffffffffffffffffffff16848d7fcae597f39a3ad75c2e10d46b031f023c5c2babcd58ca0491b122acda3968d4c08e85604051808381526020018281526020019250505060405180910390a433600090815260028401602090815260408083208e845282528083208054850190559085905290205491508582106110ff576003830180548301905560048301805460018181018355600092835260208084209092018e90558d8352808601909152604080832080547fffffffffffffffffffffffffffffffffffffffffffffffffffffffffffffff0016909217909155518c9186918f917f39493c1b78d9a13bcc9e1d532fc7faed3889248d93affa811416ce3c6bcb1a6891a45b6004830154600214156112655784546001018555600085905260038301546111279088611f63565b83600301819055507f000000000000000000000000000000000000000000000000000000000000000073ffffffffffffffffffffffffffffffffffffffff166349912f88888a8c6000016040518463ffffffff167c0100000000000000000000000000000000000000000000000000000000028152600401808381526020018060200182810382528381815460018160011615610100020316600290048152602001915080546001816001161561010002031660029004801561122b5780601f106112005761010080835404028352916020019161122b565b820191906000526020600020905b81548152906001019060200180831161120e57829003601f168201915b505093505050506000604051808303818588803b15801561124b57600080fd5b505af115801561125f573d6000803e3d6000fd5b50505050505b336108fc6112733484611f63565b6040518115909202916000818181858888f150505060008d81526001909501602052505060409092205460ff16985050505050505050505b92915050565b600481815481106112c157600080fd5b60009182526020918290206004919091020180546040805160026001841615610100027fffffffffffffffffffffffffffffffffffffffffffffffffffffffffffffffff0190931692909204601f8101859004850283018501909152808252919350918391908301828280156113785780601f1061134d57610100808354040283529160200191611378565b820191906000526020600020905b81548152906001019060200180831161135b57829003601f168201915b5050505060018301546002840154600390940154929360ff9091169290915084565b7f000000000000000000000000000000000000000000000000000000000000000081565b60015460025460035461271090919293565b60015481565b60076020526000908152604090205481565b61271081565b6000600484815481106113fd57fe5b60009182526020909120600490910201600181015490915060ff161561146e576040517f08c379a000000000000000000000000000000000000000000000000000000000815260040180806020018281038252602d815260200180612131602d913960400191505060405180910390fd5b3373ffffffffffffffffffffffffffffffffffffffff16847f000000000000000000000000000000000000000000000000000000000000000073ffffffffffffffffffffffffffffffffffffffff167fdccf2f8b2cc26eafcd61905cba744cff4b81d14740725f6376390dc6298a6a3c868660405180806020018281038252848482818152602001925080828437600083820152604051601f9091017fffffffffffffffffffffffffffffffffffffffffffffffffffffffffffffffe0169092018290039550909350505050a450505050565b60056020526000908152604090205481565b60005473ffffffffffffffffffffffffffffffffffffffff1633146115c3576040517f08c379a00000000000000000000000000000000000000000000000000000000081526004018080602001828103825260238152602001806120ed6023913960400191505060405180910390fd5b600080547fffffffffffffffffffffffff00000000000000000000000000000000000000001673ffffffffffffffffffffffffffffffffffffffff92909216919091179055565b60007ffffffffffffffffffffffffffffffffffffffffffffffffffffffffffffffffe821115611685576040517f08c379a00000000000000000000000000000000000000000000000000000000081526004018080602001828103825260268152602001806121836026913960400191505060405180910390fd5b816116ae577ffffffffffffffffffffffffffffffffffffffffffffffffffffffffffffffffe91505b7f000000000000000000000000000000000000000000000000000000000000000073ffffffffffffffffffffffffffffffffffffffff1663c13517e1348489896040518563ffffffff167c010000000000000000000000000000000000000000000000000000000002815260040180848152602001806020018281038252848482818152602001925080828437600083820152604051601f9091017fffffffffffffffffffffffffffffffffffffffffffffffffffffffffffffffe01690920196506020955090935050508184039050818588803b15801561178f57600080fd5b505af11580156117a3573d6000803e3d6000fd5b50505050506040513d60208110156117ba57600080fd5b5051600480546040805160a06020601f8c018190040282018101909252608081018a8152949550919382918b908b9081908501838280828437600092018290525093855250505060208083018290526040830182905260609092018690528354600181018555938152819020825180519394600402909101926118409284920190611ff9565b50602082810151600183810180547fffffffffffffffffffffffffffffffffffffffffffffffffffffffffffffff001692151592909217909155604080850151600285015560609094015160039093019290925560008581526005825283812085905584815260078252838120879055600682528381208054909301835591909152815181815290810186905282917f61606860eb6c87306811e2695215385101daab53bd6ab4e9f9049aead9363c7d91889188919081908101848480828437600083820152604051601f9091017fffffffffffffffffffffffffffffffffffffffffffffffffffffffffffffffe0169092018290039550909350505050a2817f000000000000000000000000000000000000000000000000000000000000000073ffffffffffffffffffffffffffffffffffffffff167f74baab670a4015ab2f1b467c5252a96141a2573f2908e58a92081e80d3cfde3d8384604051808381526020018281526020019250505060405180910390a35095945050505050565b600080600485815481106119d057fe5b60009182526020909120600490910201600181015490915060ff166119f9576000915050611a5f565b6002810154600086815260066020526040812054905b81811015611a5a576000888152600660205260408120805483908110611a3157fe5b90600052602060002090600502019050611a4d81898987611ad4565b9095019450600101611a0f565b505050505b9392505050565b600083815260066020526040812054905b81811015611a9457611a8b85858386610a6c565b50600101611a77565b5050505050565b6040518060400160405280600581526020017f322e302e3000000000000000000000000000000000000000000000000000000081525081565b600082815260018501602052604081205460ff16611b25575073ffffffffffffffffffffffffffffffffffffffff831660009081526002850160209081526040808320858452909152902054611c55565b81831415611b9857600083815260208690526040902054611b47576000611b91565b60008381526020868152604080832054600389015473ffffffffffffffffffffffffffffffffffffffff8916855260028a0184528285208886529093529220540281611b8f57fe5b045b9050611c55565b600082815260018601602052604090205460ff16611c555784600001600086600401600181548110611bc657fe5b906000526020600020015481526020019081526020016000205485600001600087600401600081548110611bf657fe5b6000918252602080832090910154835282810193909352604091820181205460038a015473ffffffffffffffffffffffffffffffffffffffff8a16835260028b018552838320898452909452919020549201910281611c5157fe5b0490505b949350505050565b600080600083851415611c735750600154611c78565b506002545b604080517ff23f16e6000000000000000000000000000000000000000000000000000000008152600481018981526024820192835288516044830152885160009373ffffffffffffffffffffffffffffffffffffffff7f0000000000000000000000000000000000000000000000000000000000000000169363f23f16e6938d938d9391926064019060208501908083838c5b83811015611d23578181015183820152602001611d0b565b50505050905090810190601f168015611d505780820380516001836020036101000a031916815260200191505b50935050505060206040518083038186803b158015611d6e57600080fd5b505afa158015611d82573d6000803e3d6000fd5b505050506040513d6020811015611d9857600080fd5b5051905080611dbd612710611dad8386611f7e565b81611db457fe5b84919004611fc6565b93509350505094509492505050565b6000807f000000000000000000000000000000000000000000000000000000000000000073ffffffffffffffffffffffffffffffffffffffff1663afe15cfb866040518263ffffffff167c010000000000000000000000000000000000000000000000000000000002815260040180828152602001915050604080518083038186803b158015611e5b57600080fd5b505afa158015611e6f573d6000803e3d6000fd5b505050506040513d6040811015611e8557600080fd5b508051602090910151909250905082841415611ef857804210611ef3576040517f08c379a000000000000000000000000000000000000000000000000000000000815260040180806020018281038252602e81526020018061209b602e913960400191505060405180910390fd5b611a94565b6127106003548383030281611f0957fe5b0482014210611a94576040517f08c379a000000000000000000000000000000000000000000000000000000000815260040180806020018281038252602e81526020018061209b602e913960400191505060405180910390fd5b600082821115611f75575060006112ab565b508082036112ab565b600082611f8d575060006112ab565b82820282848281611f9a57fe5b0414611a5f577fffffffffffffffffffffffffffffffffffffffffffffffffffffffffffffffff611c55565b600082820183811015611a5f577fffffffffffffffffffffffffffffffffffffffffffffffffffffffffffffffff611c55565b828054600181600116156101000203166002900490600052602060002090601f01602090048101928261202f5760008555612075565b82601f1061204857805160ff1916838001178555612075565b82800160010185558215612075579182015b8281111561207557825182559160200191906001019061205a565b50612081929150612085565b5090565b5b80821115612081576000815560010161208656fe46756e64696e67206d757374206265206d6164652077697468696e207468652061707065616c20706572696f642e54686973206469737075746520686173206265656e2072756c656420616c72656164792e4f6e6c792074686520676f7665726e6f722063616e206578656375746520746869732e41707065616c206665652068617320616c7265616479206265656e20706169642e43616e6e6f74207375626d69742065766964656e636520746f2061207265736f6c76656420646973707574652e4f6e6c79207468652061726269747261746f722063616e206578656375746520746869732e4e756d626572206f662072756c696e67206f7074696f6e73206f7574206f662072616e67652ea26469706673582212202969eb57a7a725dab5089d4e9e3eb4e138646edee5a3be2e7a2cddd3e922835964736f6c63430007060033",
  "immutableReferences": {
    "420": [
      {
        "length": 32,
        "start": 2036
      },
      {
        "length": 32,
        "start": 3414
      },
      {
        "length": 32,
        "start": 4401
      },
      {
        "length": 32,
        "start": 5020
      },
      {
        "length": 32,
        "start": 5256
      },
      {
        "length": 32,
        "start": 5808
      },
      {
        "length": 32,
        "start": 6466
      },
      {
        "length": 32,
        "start": 7376
      },
      {
        "length": 32,
        "start": 7633
      }
    ]
  },
  "source": "// SPDX-License-Identifier: MIT\n\n/**\n *  @authors: [@ferittuncer]\n *  @reviewers: [@fnanni-0*, @unknownunknown1*, @mtsalenc*, @MerlinEgalite*, @shalzz*, hbarcelos]\n *  @auditors: []\n *  @bounties: []\n */\n\npragma solidity ^0.7.0;\n\nimport \"@kleros/ethereum-libraries/contracts/CappedMath.sol\";\nimport \"@kleros/dispute-resolver-interface-contract/contracts/solc-0.7.x/IDisputeResolver.sol\";\n\n/**\n *  @title ArbitrableProxy\n *  A general purpose arbitrable contract. Supports non-binary rulings.\n */\ncontract ArbitrableProxy is IDisputeResolver {\n    using CappedMath for uint256; // Operations bounded between 0 and `type(uint256).max`.\n\n    uint256 public constant MAX_NUMBER_OF_CHOICES = type(uint256).max - 1;\n\n    struct Round {\n        mapping(uint256 => uint256) paidFees; // Tracks the fees paid for each ruling option in this round.\n        mapping(uint256 => bool) hasPaid; // True if this ruling option was fully funded, false otherwise.\n        mapping(address => mapping(uint256 => uint256)) contributions; // Maps contributors to their contributions for each side.\n        uint256 feeRewards; // Sum of reimbursable appeal fees available to the parties that made contributions to the ruling that ultimately wins a dispute.\n        uint256[] fundedRulings; // Stores the ruling options that are fully funded.\n    }\n\n    struct DisputeStruct {\n        bytes arbitratorExtraData;\n        bool isRuled;\n        uint256 ruling;\n        uint256 disputeIDOnArbitratorSide;\n    }\n\n    address public governor = msg.sender; // By default the governor is the deployer of this contract.\n    IArbitrator public immutable arbitrator; // Arbitrator is set in constructor and never changed.\n\n    // The required fee stake that a party must pay depends on who won the previous round and is proportional to the arbitration cost such that the fee stake for a round is stake multiplier * arbitration cost for that round.\n    uint256 public winnerStakeMultiplier = 10000; // Multiplier of the arbitration cost that the winner has to pay as fee stake for a round in basis points. Default is 1x of appeal fee.\n    uint256 public loserStakeMultiplier = 20000; // Multiplier of the arbitration cost that the loser has to pay as fee stake for a round in basis points. Default is 2x of appeal fee.\n    uint256 public loserAppealPeriodMultiplier = 5000; // Multiplier of the appeal period for losers (any other ruling options) in basis points. Default is 1/2 of original appeal period.\n    uint256 public constant DENOMINATOR = 10000; // Denominator for multipliers.\n\n    DisputeStruct[] public disputes;\n    mapping(uint256 => uint256) public override externalIDtoLocalID; // Maps external (arbitrator side) dispute IDs to local dispute IDs.\n    mapping(uint256 => Round[]) public disputeIDtoRoundArray; // Maps dispute IDs to round arrays.\n    mapping(uint256 => uint256) public override numberOfRulingOptions; // Maps localDisputeIDs to number of possible ruling options.\n\n    /** @dev Constructor\n     *  @param _arbitrator Target global arbitrator for any disputes.\n     */\n    constructor(IArbitrator _arbitrator) {\n        arbitrator = _arbitrator;\n    }\n\n    /** @dev Allows to submit evidence for a given dispute.\n     *  @param _localDisputeID Index of the dispute in disputes array.\n     *  @param _evidenceURI Link to evidence.\n     */\n    function submitEvidence(uint256 _localDisputeID, string calldata _evidenceURI) external override {\n        DisputeStruct storage dispute = disputes[_localDisputeID];\n        require(dispute.isRuled == false, \"Cannot submit evidence to a resolved dispute.\");\n\n        emit Evidence(arbitrator, _localDisputeID, msg.sender, _evidenceURI);\n    }\n\n    /** @dev TRUSTED. Calls createDispute function of the specified arbitrator to create a dispute.\n        Note that we dont need to check that msg.value is enough to pay arbitration fees as its the responsibility of the arbitrator contract.\n     *  @param _arbitratorExtraData Extra data for the arbitrator of prospective dispute.\n     *  @param _metaevidenceURI Link to metaevidence of prospective dispute.\n     *  @param _numberOfRulingOptions Number of ruling options.\n     *  @return disputeID Dispute id (on arbitrator side) of the dispute created.\n     */\n    function createDispute(\n        bytes calldata _arbitratorExtraData,\n        string calldata _metaevidenceURI,\n        uint256 _numberOfRulingOptions\n    ) external payable returns (uint256 disputeID) {\n        require(_numberOfRulingOptions <= MAX_NUMBER_OF_CHOICES, \"Number of ruling options out of range.\");\n        if (_numberOfRulingOptions == 0) _numberOfRulingOptions = MAX_NUMBER_OF_CHOICES;\n\n        disputeID = arbitrator.createDispute{value: msg.value}(_numberOfRulingOptions, _arbitratorExtraData);\n\n        uint256 localDisputeID = disputes.length;\n\n        disputes.push(DisputeStruct({arbitratorExtraData: _arbitratorExtraData, isRuled: false, ruling: 0, disputeIDOnArbitratorSide: disputeID}));\n\n        externalIDtoLocalID[disputeID] = localDisputeID;\n\n        numberOfRulingOptions[localDisputeID] = _numberOfRulingOptions;\n        disputeIDtoRoundArray[localDisputeID].push();\n\n        emit MetaEvidence(localDisputeID, _metaevidenceURI);\n        emit Dispute(arbitrator, disputeID, localDisputeID, localDisputeID);\n    }\n\n    /** @dev TRUSTED. Manages contributions and calls appeal function of the specified arbitrator to appeal a dispute. This function lets appeals be crowdfunded.\n     *  @param _localDisputeID Index of the dispute in disputes array.\n     *  @param _ruling The ruling to which the caller wants to contribute.\n     *  @return fullyFunded Whether _ruling was fully funded after the call.\n     */\n    function fundAppeal(uint256 _localDisputeID, uint256 _ruling) external payable override returns (bool fullyFunded) {\n        require(_ruling <= numberOfRulingOptions[_localDisputeID], \"There is no such ruling to fund.\");\n        DisputeStruct storage dispute = disputes[_localDisputeID];\n        uint256 disputeID = dispute.disputeIDOnArbitratorSide; // Intermediate variable to make reads cheaper.\n\n        uint256 originalCost;\n        uint256 totalCost;\n        {\n            uint256 currentRuling = arbitrator.currentRuling(disputeID); // Intermediate variable to make reads cheaper.\n            (originalCost, totalCost) = appealCost(disputeID, dispute.arbitratorExtraData, _ruling, currentRuling);\n            checkAppealPeriod(disputeID, _ruling, currentRuling); // Reverts if appeal period has been expired for _ruling.\n        }\n\n        Round[] storage rounds = disputeIDtoRoundArray[_localDisputeID];\n        uint256 lastRoundIndex = rounds.length - 1; // Intermediate variable to make reads cheaper.\n        Round storage lastRound = rounds[lastRoundIndex];\n\n        require(!lastRound.hasPaid[_ruling], \"Appeal fee has already been paid.\");\n        uint256 paidFeesInLastRound = lastRound.paidFees[_ruling]; // Intermediate variable to make reads cheaper.\n\n        uint256 contribution = totalCost.subCap(paidFeesInLastRound) > msg.value ? msg.value : totalCost.subCap(paidFeesInLastRound);\n        lastRound.paidFees[_ruling] += contribution;\n\n        emit Contribution(_localDisputeID, lastRoundIndex, _ruling, msg.sender, contribution);\n        lastRound.contributions[msg.sender][_ruling] += contribution;\n\n        paidFeesInLastRound = lastRound.paidFees[_ruling]; // Intermediate variable to make reads cheaper.\n\n        if (paidFeesInLastRound >= totalCost) {\n            lastRound.feeRewards += paidFeesInLastRound;\n            lastRound.fundedRulings.push(_ruling);\n            lastRound.hasPaid[_ruling] = true;\n            emit RulingFunded(_localDisputeID, lastRoundIndex, _ruling);\n        }\n\n        if (lastRound.fundedRulings.length == 2) {\n            // Two competing ruling options means we will have another appeal round.\n            rounds.push();\n\n            lastRound.feeRewards = lastRound.feeRewards.subCap(originalCost);\n            arbitrator.appeal{value: originalCost}(disputeID, dispute.arbitratorExtraData);\n        }\n\n        msg.sender.send(msg.value.subCap(contribution)); // Sending extra value back to contributor. Send preferred over transfer deliberately.\n\n        return lastRound.hasPaid[_ruling];\n    }\n\n    /** @dev Allows to withdraw any rewards or reimbursable fees after the dispute gets resolved. For all rounds at once.\n     *  This function has O(m) time complexity where m is number of rounds.\n     *  It is safe to assume m is always less than 10 as appeal cost growth order is O(2^m).\n     *  Thus, we can assume this loop will run less than 10 times, and on average just a few times.\n     *  @param _localDisputeID Index of the dispute in disputes array.\n     *  @param _contributor The address to withdraw its rewards.\n     *  @param _ruling Rulings that received contributions from contributor.\n     */\n    function withdrawFeesAndRewardsForAllRounds(\n        uint256 _localDisputeID,\n        address payable _contributor,\n        uint256 _ruling\n    ) external override {\n        uint256 numberOfRounds = disputeIDtoRoundArray[_localDisputeID].length;\n        for (uint256 roundNumber = 0; roundNumber < numberOfRounds; roundNumber++) {\n            withdrawFeesAndRewards(_localDisputeID, _contributor, roundNumber, _ruling);\n        }\n    }\n\n    /** @dev Allows to withdraw any reimbursable fees or rewards after the dispute gets solved.\n     *  @param _localDisputeID Index of the dispute in disputes array.\n     *  @param _contributor The address to withdraw its rewards.\n     *  @param _roundNumber The number of the round caller wants to withdraw from.\n     *  @param _ruling The ruling option that the caller wants to withdraw fees and rewards related to it.\n     *  @return amount Reward amount that is to be withdrawn. Might be zero if arguments are not qualifying for a reward or reimbursement, or it might be withdrawn already.\n     */\n    function withdrawFeesAndRewards(\n        uint256 _localDisputeID,\n        address payable _contributor,\n        uint256 _roundNumber,\n        uint256 _ruling\n    ) public override returns (uint256 amount) {\n        DisputeStruct storage dispute = disputes[_localDisputeID];\n        require(dispute.isRuled, \"The dispute should be solved\");\n\n        Round storage round = disputeIDtoRoundArray[_localDisputeID][_roundNumber];\n\n        amount = getWithdrawableAmount(round, _contributor, _ruling, dispute.ruling);\n\n        if (amount != 0) {\n            round.contributions[_contributor][_ruling] = 0;\n            _contributor.send(amount); // Ignoring failure condition deliberately.\n            emit Withdrawal(_localDisputeID, _roundNumber, _ruling, _contributor, amount);\n        }\n    }\n\n    /** @dev To be called by the arbitrator of the dispute, to declare winning ruling.\n     *  @param _externalDisputeID ID of the dispute in arbitrator contract.\n     *  @param _ruling The ruling choice of the arbitration.\n     */\n    function rule(uint256 _externalDisputeID, uint256 _ruling) external override {\n        uint256 localDisputeID = externalIDtoLocalID[_externalDisputeID];\n        DisputeStruct storage dispute = disputes[localDisputeID];\n        require(msg.sender == address(arbitrator), \"Only the arbitrator can execute this.\");\n        require(_ruling <= numberOfRulingOptions[localDisputeID], \"Invalid ruling.\");\n        require(dispute.isRuled == false, \"This dispute has been ruled already.\");\n\n        dispute.isRuled = true;\n        dispute.ruling = _ruling;\n\n        Round[] storage rounds = disputeIDtoRoundArray[localDisputeID];\n        Round storage lastRound = disputeIDtoRoundArray[localDisputeID][rounds.length - 1];\n        // If only one ruling option is funded, it wins by default. Note that if any other ruling had funded, an appeal would have been created.\n        if (lastRound.fundedRulings.length == 1) {\n            dispute.ruling = lastRound.fundedRulings[0];\n        }\n\n        emit Ruling(IArbitrator(msg.sender), _externalDisputeID, dispute.ruling);\n    }\n\n    /** @dev Changes governor.\n     *  @param _newGovernor The address of the new governor.\n     */\n    function setGovernor(address _newGovernor) external {\n        require(msg.sender == governor, \"Only the governor can execute this.\");\n        governor = _newGovernor;\n    }\n\n    /** @dev Changes the proportion of appeal fees that must be paid by winner and loser and changes the appeal period portion for losers.\n     *  @param _winnerStakeMultiplier The new winner stake multiplier value respect to DENOMINATOR.\n     *  @param _loserStakeMultiplier The new loser stake multiplier value respect to DENOMINATOR.\n     *  @param _loserAppealPeriodMultiplier The new loser appeal period multiplier respect to DENOMINATOR. Having a value greater than DENOMINATOR has no effect since arbitrator limits appeal period.\n     */\n    function changeMultipliers(\n        uint256 _winnerStakeMultiplier,\n        uint256 _loserStakeMultiplier,\n        uint256 _loserAppealPeriodMultiplier\n    ) external {\n        require(msg.sender == governor, \"Only the governor can execute this.\");\n        winnerStakeMultiplier = _winnerStakeMultiplier;\n        loserStakeMultiplier = _loserStakeMultiplier;\n        loserAppealPeriodMultiplier = _loserAppealPeriodMultiplier;\n    }\n\n    /** @notice Returns the sum of withdrawable amount.\n     *  @dev This function has O(m) time complexity where m is number of rounds.\n     *  It is safe to assume m is always less than 10 as appeal cost growth order is O(2^m).\n     *  @param _localDisputeID Index of the dispute in disputes array.\n     *  @param _contributor The contributor for which to query.\n     *  @param _ruling The ruling option to search for potential withdrawal. Caller can obtain this information using Contribution events.\n     *  @return sum The total amount available to withdraw.\n     */\n    function getTotalWithdrawableAmount(\n        uint256 _localDisputeID,\n        address payable _contributor,\n        uint256 _ruling\n    ) external view override returns (uint256 sum) {\n        DisputeStruct storage dispute = disputes[_localDisputeID];\n        if (!dispute.isRuled) return 0;\n        uint256 finalRuling = dispute.ruling;\n\n        uint256 numberOfRounds = disputeIDtoRoundArray[_localDisputeID].length;\n        for (uint256 roundNumber = 0; roundNumber < numberOfRounds; roundNumber++) {\n            Round storage round = disputeIDtoRoundArray[_localDisputeID][roundNumber];\n\n            sum += getWithdrawableAmount(round, _contributor, _ruling, finalRuling);\n        }\n    }\n\n    /** @dev Returns stake multipliers.\n     *  @return _winnerStakeMultiplier Winners stake multiplier.\n     *  @return _loserStakeMultiplier Losers stake multiplier.\n     *  @return _loserAppealPeriodMultiplier Multiplier for losers appeal period. The loser is given less time to fund its appeal to defend against last minute appeal funding attacks.\n     *  @return _denominator Multiplier denominator in basis points.\n     */\n    function getMultipliers()\n        external\n        view\n        override\n        returns (\n            uint256 _winnerStakeMultiplier,\n            uint256 _loserStakeMultiplier,\n            uint256 _loserAppealPeriodMultiplier,\n            uint256 _denominator\n        )\n    {\n        return (winnerStakeMultiplier, loserStakeMultiplier, loserAppealPeriodMultiplier, DENOMINATOR);\n    }\n\n    /** @dev Returns withdrawable amount for given parameters.\n     *  @param _round The round number to calculate amount for.\n     *  @param _contributor The contributor for which to query.\n     *  @param _ruling The ruling option to search for potential withdrawal. Caller can obtain this information using Contribution events.\n     *  @return amount The total amount available to withdraw.\n     */\n    function getWithdrawableAmount(\n        Round storage _round,\n        address _contributor,\n        uint256 _ruling,\n        uint256 _finalRuling\n    ) internal view returns (uint256 amount) {\n        if (!_round.hasPaid[_ruling]) {\n            // Allow to reimburse if funding was unsuccessful for this ruling option.\n            amount = _round.contributions[_contributor][_ruling];\n        } else {\n            // Funding was successful for this ruling option.\n            if (_ruling == _finalRuling) {\n                // This ruling option is the ultimate winner.\n                amount = _round.paidFees[_ruling] > 0 ? (_round.contributions[_contributor][_ruling] * _round.feeRewards) / _round.paidFees[_ruling] : 0;\n            } else if (!_round.hasPaid[_finalRuling]) {\n                // The ultimate winner was not funded in this round. In this case funded ruling option(s) wins by default. Prize is distributed among contributors of funded ruling option(s).\n                amount = (_round.contributions[_contributor][_ruling] * _round.feeRewards) / (_round.paidFees[_round.fundedRulings[0]] + _round.paidFees[_round.fundedRulings[1]]);\n            }\n        }\n    }\n\n    /** @dev Reverts if appeal period has expired for given ruling option. It gives less time for funding appeal for losing ruling option (in the last round).\n     *  Note that we don't check starting time, as arbitrator already check this. If user contributes before starting time it's effectively an early contibution for the next round.\n     *  @param _disputeID Dispute ID of Kleros dispute.\n     *  @param _ruling The ruling option to query for.\n     *  @param _currentRuling The latest ruling given by Kleros. Note that this ruling is not final at this point, can be appealed.\n     */\n    function checkAppealPeriod(\n        uint256 _disputeID,\n        uint256 _ruling,\n        uint256 _currentRuling\n    ) internal view {\n        (uint256 originalStart, uint256 originalEnd) = arbitrator.appealPeriod(_disputeID);\n\n        if (_currentRuling == _ruling) {\n            require(block.timestamp < originalEnd, \"Funding must be made within the appeal period.\");\n        } else {\n            require(block.timestamp < (originalStart + ((originalEnd - originalStart) * loserAppealPeriodMultiplier) / DENOMINATOR), \"Funding must be made within the appeal period.\");\n        }\n    }\n\n    /** @dev Retrieves appeal cost for each ruling. It extends the function with the same name on the arbitrator side by adding\n     *  _ruling parameter because total to be raised depends on multipliers.\n     *  @param _disputeID The dispute this function returns its appeal costs.\n     *  @param _arbitratorExtraData Extra data for the arbitrator of prospective dispute.\n     *  @param _ruling The ruling option which the caller wants to return the appeal cost for.\n     *  @param _currentRuling The ruling option which the caller wants to return the appeal cost for.\n     *  @return originalCost The original cost of appeal, decided by arbitrator.\n     *  @return specificCost The specific cost of appeal, including appeal stakes of winner or loser.\n     */\n    function appealCost(\n        uint256 _disputeID,\n        bytes memory _arbitratorExtraData,\n        uint256 _ruling,\n        uint256 _currentRuling\n    ) internal view returns (uint256 originalCost, uint256 specificCost) {\n        uint256 multiplier;\n        if (_ruling == _currentRuling) multiplier = winnerStakeMultiplier;\n        else multiplier = loserStakeMultiplier;\n\n        uint256 appealFee = arbitrator.appealCost(_disputeID, _arbitratorExtraData);\n        return (appealFee, appealFee.addCap(appealFee.mulCap(multiplier) / DENOMINATOR));\n    }\n}\n",
  "sourcePath": "/Users/ferit/IdeaProjects/arbitrable-proxy-contracts/contracts/ArbitrableProxy.sol",
  "compiler": {
    "name": "solc",
    "version": "0.7.6+commit.7338295f.Emscripten.clang"
  },
  "schemaVersion": "3.4.15",
  "updatedAt": "2024-01-13T16:19:14.875Z",
  "networkType": "ethereum",
  "devdoc": {
    "kind": "dev",
    "methods": {
      "changeMultipliers(uint256,uint256,uint256)": {
        "details": "Changes the proportion of appeal fees that must be paid by winner and loser and changes the appeal period portion for losers.",
        "params": {
          "_loserAppealPeriodMultiplier": "The new loser appeal period multiplier respect to DENOMINATOR. Having a value greater than DENOMINATOR has no effect since arbitrator limits appeal period.",
          "_loserStakeMultiplier": "The new loser stake multiplier value respect to DENOMINATOR.",
          "_winnerStakeMultiplier": "The new winner stake multiplier value respect to DENOMINATOR."
        }
      },
      "constructor": {
        "details": "Constructor",
        "params": {
          "_arbitrator": "Target global arbitrator for any disputes."
        }
      },
      "createDispute(bytes,string,uint256)": {
        "details": "TRUSTED. Calls createDispute function of the specified arbitrator to create a dispute. Note that we dont need to check that msg.value is enough to pay arbitration fees as its the responsibility of the arbitrator contract.",
        "params": {
          "_arbitratorExtraData": "Extra data for the arbitrator of prospective dispute.",
          "_metaevidenceURI": "Link to metaevidence of prospective dispute.",
          "_numberOfRulingOptions": "Number of ruling options."
        },
        "returns": {
          "disputeID": "Dispute id (on arbitrator side) of the dispute created."
        }
      },
      "fundAppeal(uint256,uint256)": {
        "details": "TRUSTED. Manages contributions and calls appeal function of the specified arbitrator to appeal a dispute. This function lets appeals be crowdfunded.",
        "params": {
          "_localDisputeID": "Index of the dispute in disputes array.",
          "_ruling": "The ruling to which the caller wants to contribute."
        },
        "returns": {
          "fullyFunded": "Whether _ruling was fully funded after the call."
        }
      },
      "getMultipliers()": {
        "details": "Returns stake multipliers.",
        "returns": {
          "_denominator": "Multiplier denominator in basis points.",
          "_loserAppealPeriodMultiplier": "Multiplier for losers appeal period. The loser is given less time to fund its appeal to defend against last minute appeal funding attacks.",
          "_loserStakeMultiplier": "Losers stake multiplier.",
          "_winnerStakeMultiplier": "Winners stake multiplier."
        }
      },
      "getTotalWithdrawableAmount(uint256,address,uint256)": {
        "details": "This function has O(m) time complexity where m is number of rounds.  It is safe to assume m is always less than 10 as appeal cost growth order is O(2^m).",
        "params": {
          "_contributor": "The contributor for which to query.",
          "_localDisputeID": "Index of the dispute in disputes array.",
          "_ruling": "The ruling option to search for potential withdrawal. Caller can obtain this information using Contribution events."
        },
        "returns": {
          "sum": "The total amount available to withdraw."
        }
      },
      "rule(uint256,uint256)": {
        "details": "To be called by the arbitrator of the dispute, to declare winning ruling.",
        "params": {
          "_externalDisputeID": "ID of the dispute in arbitrator contract.",
          "_ruling": "The ruling choice of the arbitration."
        }
      },
      "setGovernor(address)": {
        "details": "Changes governor.",
        "params": {
          "_newGovernor": "The address of the new governor."
        }
      },
      "submitEvidence(uint256,string)": {
        "details": "Allows to submit evidence for a given dispute.",
        "params": {
          "_evidenceURI": "Link to evidence.",
          "_localDisputeID": "Index of the dispute in disputes array."
        }
      },
      "withdrawFeesAndRewards(uint256,address,uint256,uint256)": {
        "details": "Allows to withdraw any reimbursable fees or rewards after the dispute gets solved.",
        "params": {
          "_contributor": "The address to withdraw its rewards.",
          "_localDisputeID": "Index of the dispute in disputes array.",
          "_roundNumber": "The number of the round caller wants to withdraw from.",
          "_ruling": "The ruling option that the caller wants to withdraw fees and rewards related to it."
        },
        "returns": {
          "amount": "Reward amount that is to be withdrawn. Might be zero if arguments are not qualifying for a reward or reimbursement, or it might be withdrawn already."
        }
      },
      "withdrawFeesAndRewardsForAllRounds(uint256,address,uint256)": {
        "details": "Allows to withdraw any rewards or reimbursable fees after the dispute gets resolved. For all rounds at once.  This function has O(m) time complexity where m is number of rounds.  It is safe to assume m is always less than 10 as appeal cost growth order is O(2^m).  Thus, we can assume this loop will run less than 10 times, and on average just a few times.",
        "params": {
          "_contributor": "The address to withdraw its rewards.",
          "_localDisputeID": "Index of the dispute in disputes array.",
          "_ruling": "Rulings that received contributions from contributor."
        }
      }
    },
    "stateVariables": {
      "externalIDtoLocalID": {
        "details": "Maps external (arbitrator side) dispute id to local (arbitrable) dispute id.",
        "params": {
          "_externalDisputeID": "Dispute id as in arbitrator contract."
        },
        "return": "localDisputeID Dispute id as in arbitrable contract."
      },
      "numberOfRulingOptions": {
        "details": "Returns number of possible ruling options. Valid rulings are [0, return value].",
        "params": {
          "_localDisputeID": "Identifier of a dispute in scope of arbitrable contract. Arbitrator ids can be translated to local ids via externalIDtoLocalID."
        },
        "return": "count The number of ruling options."
      }
    },
    "title": "ArbitrableProxy  A general purpose arbitrable contract. Supports non-binary rulings.",
    "version": 1
  },
  "userdoc": {
    "kind": "user",
    "methods": {
      "getTotalWithdrawableAmount(uint256,address,uint256)": {
        "notice": "Returns the sum of withdrawable amount."
      }
    },
    "version": 1
  }
}